{
  "contractName": "CountdownButton",
  "abi": [
    {
      "inputs": [
        {
          "internalType": "address",
          "name": "_admin",
          "type": "address"
        },
        {
          "internalType": "contract TestToken",
          "name": "_token",
          "type": "address"
        },
        {
          "internalType": "uint256",
          "name": "_unluckPeriod",
          "type": "uint256"
        },
        {
          "internalType": "uint256",
          "name": "_startAt",
          "type": "uint256"
        }
      ],
      "stateMutability": "nonpayable",
      "type": "constructor"
    },
    {
      "anonymous": false,
      "inputs": [
        {
          "indexed": false,
          "internalType": "uint256",
          "name": "pcount",
          "type": "uint256"
        }
      ],
      "name": "Create",
      "type": "event"
    },
    {
      "anonymous": false,
      "inputs": [
        {
          "indexed": true,
          "internalType": "bytes32",
          "name": "role",
          "type": "bytes32"
        },
        {
          "indexed": true,
          "internalType": "bytes32",
          "name": "previousAdminRole",
          "type": "bytes32"
        },
        {
          "indexed": true,
          "internalType": "bytes32",
          "name": "newAdminRole",
          "type": "bytes32"
        }
      ],
      "name": "RoleAdminChanged",
      "type": "event"
    },
    {
      "anonymous": false,
      "inputs": [
        {
          "indexed": true,
          "internalType": "bytes32",
          "name": "role",
          "type": "bytes32"
        },
        {
          "indexed": true,
          "internalType": "address",
          "name": "account",
          "type": "address"
        },
        {
          "indexed": true,
          "internalType": "address",
          "name": "sender",
          "type": "address"
        }
      ],
      "name": "RoleGranted",
      "type": "event"
    },
    {
      "anonymous": false,
      "inputs": [
        {
          "indexed": true,
          "internalType": "bytes32",
          "name": "role",
          "type": "bytes32"
        },
        {
          "indexed": true,
          "internalType": "address",
          "name": "account",
          "type": "address"
        },
        {
          "indexed": true,
          "internalType": "address",
          "name": "sender",
          "type": "address"
        }
      ],
      "name": "RoleRevoked",
      "type": "event"
    },
    {
      "inputs": [],
      "name": "ADMIN_ROLE",
      "outputs": [
        {
          "internalType": "bytes32",
          "name": "",
          "type": "bytes32"
        }
      ],
      "stateMutability": "view",
      "type": "function",
      "constant": true
    },
    {
      "inputs": [],
      "name": "DEFAULT_ADMIN_ROLE",
      "outputs": [
        {
          "internalType": "bytes32",
          "name": "",
          "type": "bytes32"
        }
      ],
      "stateMutability": "view",
      "type": "function",
      "constant": true
    },
    {
      "inputs": [],
      "name": "admin",
      "outputs": [
        {
          "internalType": "address",
          "name": "",
          "type": "address"
        }
      ],
      "stateMutability": "view",
      "type": "function",
      "constant": true
    },
    {
      "inputs": [],
      "name": "count",
      "outputs": [
        {
          "internalType": "uint256",
          "name": "",
          "type": "uint256"
        }
      ],
      "stateMutability": "view",
      "type": "function",
      "constant": true
    },
    {
      "inputs": [],
      "name": "countdownEnd",
      "outputs": [
        {
          "internalType": "uint256",
          "name": "",
          "type": "uint256"
        }
      ],
      "stateMutability": "view",
      "type": "function",
      "constant": true
    },
    {
      "inputs": [],
      "name": "countdownStart",
      "outputs": [
        {
          "internalType": "uint256",
          "name": "",
          "type": "uint256"
        }
      ],
      "stateMutability": "view",
      "type": "function",
      "constant": true
    },
    {
      "inputs": [],
      "name": "depositAmount",
      "outputs": [
        {
          "internalType": "uint256",
          "name": "",
          "type": "uint256"
        }
      ],
      "stateMutability": "view",
      "type": "function",
      "constant": true
    },
    {
      "inputs": [
        {
          "internalType": "bytes32",
          "name": "role",
          "type": "bytes32"
        }
      ],
      "name": "getRoleAdmin",
      "outputs": [
        {
          "internalType": "bytes32",
          "name": "",
          "type": "bytes32"
        }
      ],
      "stateMutability": "view",
      "type": "function",
      "constant": true
    },
    {
      "inputs": [
        {
          "internalType": "bytes32",
          "name": "role",
          "type": "bytes32"
        },
        {
          "internalType": "address",
          "name": "account",
          "type": "address"
        }
      ],
      "name": "grantRole",
      "outputs": [],
      "stateMutability": "nonpayable",
      "type": "function"
    },
    {
      "inputs": [
        {
          "internalType": "bytes32",
          "name": "role",
          "type": "bytes32"
        },
        {
          "internalType": "address",
          "name": "account",
          "type": "address"
        }
      ],
      "name": "hasRole",
      "outputs": [
        {
          "internalType": "bool",
          "name": "",
          "type": "bool"
        }
      ],
      "stateMutability": "view",
      "type": "function",
      "constant": true
    },
    {
      "inputs": [],
      "name": "initialDepositAmount",
      "outputs": [
        {
          "internalType": "uint256",
          "name": "",
          "type": "uint256"
        }
      ],
      "stateMutability": "view",
      "type": "function",
      "constant": true
    },
    {
      "inputs": [],
      "name": "newCountdownEnd",
      "outputs": [
        {
          "internalType": "uint256",
          "name": "",
          "type": "uint256"
        }
      ],
      "stateMutability": "view",
      "type": "function",
      "constant": true
    },
    {
      "inputs": [],
      "name": "participantAddress",
      "outputs": [
        {
          "internalType": "address",
          "name": "",
          "type": "address"
        }
      ],
      "stateMutability": "view",
      "type": "function",
      "constant": true
    },
    {
      "inputs": [
        {
          "internalType": "uint256",
          "name": "",
          "type": "uint256"
        }
      ],
      "name": "participants",
      "outputs": [
        {
          "internalType": "uint256",
          "name": "pId",
          "type": "uint256"
        },
        {
          "internalType": "address",
          "name": "pAddress",
          "type": "address"
        },
        {
          "internalType": "uint256",
          "name": "balance",
          "type": "uint256"
        },
        {
          "internalType": "uint256",
          "name": "joinAt",
          "type": "uint256"
        },
        {
          "internalType": "uint256",
          "name": "initialDepositAmount",
          "type": "uint256"
        },
        {
          "internalType": "bool",
          "name": "choice",
          "type": "bool"
        },
        {
          "internalType": "bool",
          "name": "isLeader",
          "type": "bool"
        }
      ],
      "stateMutability": "view",
      "type": "function",
      "constant": true
    },
    {
      "inputs": [
        {
          "internalType": "bytes32",
          "name": "role",
          "type": "bytes32"
        },
        {
          "internalType": "address",
          "name": "account",
          "type": "address"
        }
      ],
      "name": "renounceRole",
      "outputs": [],
      "stateMutability": "nonpayable",
      "type": "function"
    },
    {
      "inputs": [],
      "name": "reset",
      "outputs": [
        {
          "internalType": "bool",
          "name": "",
          "type": "bool"
        }
      ],
      "stateMutability": "view",
      "type": "function",
      "constant": true
    },
    {
      "inputs": [
        {
          "internalType": "bytes32",
          "name": "role",
          "type": "bytes32"
        },
        {
          "internalType": "address",
          "name": "account",
          "type": "address"
        }
      ],
      "name": "revokeRole",
      "outputs": [],
      "stateMutability": "nonpayable",
      "type": "function"
    },
    {
      "inputs": [],
      "name": "state",
      "outputs": [
        {
          "internalType": "enum CountdownButton.State",
          "name": "",
          "type": "uint8"
        }
      ],
      "stateMutability": "view",
      "type": "function",
      "constant": true
    },
    {
      "inputs": [
        {
          "internalType": "bytes4",
          "name": "interfaceId",
          "type": "bytes4"
        }
      ],
      "name": "supportsInterface",
      "outputs": [
        {
          "internalType": "bool",
          "name": "",
          "type": "bool"
        }
      ],
      "stateMutability": "view",
      "type": "function",
      "constant": true
    },
    {
      "inputs": [],
      "name": "token",
      "outputs": [
        {
          "internalType": "contract TestToken",
          "name": "",
          "type": "address"
        }
      ],
      "stateMutability": "view",
      "type": "function",
      "constant": true
    },
    {
      "inputs": [],
      "name": "totalPrize",
      "outputs": [
        {
          "internalType": "uint256",
          "name": "",
          "type": "uint256"
        }
      ],
      "stateMutability": "view",
      "type": "function",
      "constant": true
    },
    {
      "inputs": [],
      "name": "unlockPeriod",
      "outputs": [
        {
          "internalType": "uint256",
          "name": "",
          "type": "uint256"
        }
      ],
      "stateMutability": "view",
      "type": "function",
      "constant": true
    },
    {
      "inputs": [],
      "name": "winnerAddress",
      "outputs": [
        {
          "internalType": "address",
          "name": "",
          "type": "address"
        }
      ],
      "stateMutability": "view",
      "type": "function",
      "constant": true
    },
    {
      "inputs": [
        {
          "internalType": "bool",
          "name": "_choice",
          "type": "bool"
        }
      ],
      "name": "onClick",
      "outputs": [],
      "stateMutability": "nonpayable",
      "type": "function"
    },
    {
      "inputs": [
        {
          "internalType": "bool",
          "name": "_change",
          "type": "bool"
        },
        {
          "internalType": "uint256",
          "name": "_newAmount",
          "type": "uint256"
        }
      ],
      "name": "changeDepositAmount",
      "outputs": [],
      "stateMutability": "nonpayable",
      "type": "function"
    },
    {
      "inputs": [],
      "name": "getCountdown",
      "outputs": [
        {
          "internalType": "uint256",
          "name": "",
          "type": "uint256"
        }
      ],
      "stateMutability": "view",
      "type": "function",
      "constant": true
    },
    {
      "inputs": [],
      "name": "winner",
      "outputs": [],
      "stateMutability": "nonpayable",
      "type": "function"
    }
  ],
  "bytecode": "0x60806040523480156200001157600080fd5b50604051620028213803806200282183398181016040528101906200003791906200038e565b620000697fa49807205ce4d355092ef5a8a18f56e8913cf4a201fbe287825b095693c21775856200011360201b60201c565b826001806101000a81548173ffffffffffffffffffffffffffffffffffffffff021916908373ffffffffffffffffffffffffffffffffffffffff1602179055508160078190555080600881905550620000d56008546007546200012960201b620011301790919060201c565b6009819055506000600160006101000a81548160ff0219169083600281111562000104576200010362000400565b5b021790555050505050620004bb565b6200012582826200014160201b60201c565b5050565b600081836200013991906200045e565b905092915050565b6200015382826200023260201b60201c565b6200022e57600160008084815260200190815260200160002060000160008373ffffffffffffffffffffffffffffffffffffffff1673ffffffffffffffffffffffffffffffffffffffff16815260200190815260200160002060006101000a81548160ff021916908315150217905550620001d36200029c60201b60201c565b73ffffffffffffffffffffffffffffffffffffffff168173ffffffffffffffffffffffffffffffffffffffff16837f2f8788117e7eff1d82e926ec794901d17c78024a50270940304540a733656f0d60405160405180910390a45b5050565b600080600084815260200190815260200160002060000160008373ffffffffffffffffffffffffffffffffffffffff1673ffffffffffffffffffffffffffffffffffffffff16815260200190815260200160002060009054906101000a900460ff16905092915050565b600033905090565b600080fd5b600073ffffffffffffffffffffffffffffffffffffffff82169050919050565b6000620002d682620002a9565b9050919050565b620002e881620002c9565b8114620002f457600080fd5b50565b6000815190506200030881620002dd565b92915050565b60006200031b82620002c9565b9050919050565b6200032d816200030e565b81146200033957600080fd5b50565b6000815190506200034d8162000322565b92915050565b6000819050919050565b620003688162000353565b81146200037457600080fd5b50565b60008151905062000388816200035d565b92915050565b60008060008060808587031215620003ab57620003aa620002a4565b5b6000620003bb87828801620002f7565b9450506020620003ce878288016200033c565b9350506040620003e18782880162000377565b9250506060620003f48782880162000377565b91505092959194509250565b7f4e487b7100000000000000000000000000000000000000000000000000000000600052602160045260246000fd5b7f4e487b7100000000000000000000000000000000000000000000000000000000600052601160045260246000fd5b60006200046b8262000353565b9150620004788362000353565b9250827fffffffffffffffffffffffffffffffffffffffffffffffffffffffffffffffff03821115620004b057620004af6200042f565b5b828201905092915050565b61235680620004cb6000396000f3fe608060405234801561001057600080fd5b50600436106101a95760003560e01c806382b1ad50116100f9578063d826f88f11610097578063ed7a4e0b11610071578063ed7a4e0b14610490578063f673d6e2146104ae578063f851a440146104cc578063fc0c546a146104ea576101a9565b8063d826f88f1461044a578063dfbf53ae14610468578063e1660dbd14610472576101a9565b8063b37a4d01116100d3578063b37a4d01146103d6578063c19d93fb146103f4578063d45dcca014610412578063d547741f1461042e576101a9565b806382b1ad501461036a57806391d1485414610388578063a217fddf146103b8576101a9565b80632f2ff15d11610166578063419759f511610140578063419759f5146102f457806359ff6ba8146103125780636e560d051461033057806375b238fc1461034c576101a9565b80632f2ff15d1461028657806335c1d349146102a257806336568abe146102d8576101a9565b806301ffc9a7146101ae57806306661abd146101de57806310b2740a146101fc57806320d3a0b41461021a57806321edd09714610238578063248a9ca314610256575b600080fd5b6101c860048036038101906101c39190611705565b610508565b6040516101d5919061174d565b60405180910390f35b6101e6610582565b6040516101f39190611781565b60405180910390f35b610204610588565b6040516102119190611781565b60405180910390f35b61022261058e565b60405161022f9190611781565b60405180910390f35b610240610594565b60405161024d9190611781565b60405180910390f35b610270600480360381019061026b91906117d2565b61059a565b60405161027d919061180e565b60405180910390f35b6102a0600480360381019061029b9190611887565b6105b9565b005b6102bc60048036038101906102b791906118f3565b6105da565b6040516102cf979695949392919061192f565b60405180910390f35b6102f260048036038101906102ed9190611887565b610656565b005b6102fc6106d9565b6040516103099190611781565b60405180910390f35b61031a6106df565b604051610327919061199e565b60405180910390f35b61034a600480360381019061034591906119e5565b610705565b005b6103546107f7565b604051610361919061180e565b60405180910390f35b61037261081b565b60405161037f9190611781565b60405180910390f35b6103a2600480360381019061039d9190611887565b610821565b6040516103af919061174d565b60405180910390f35b6103c061088b565b6040516103cd919061180e565b60405180910390f35b6103de610892565b6040516103eb9190611781565b60405180910390f35b6103fc610898565b6040516104099190611a9c565b60405180910390f35b61042c60048036038101906104279190611ab7565b6108ab565b005b61044860048036038101906104439190611887565b610c64565b005b610452610c85565b60405161045f919061174d565b60405180910390f35b610470610c98565b005b61047a611059565b6040516104879190611781565b60405180910390f35b6104986110ba565b6040516104a5919061199e565b60405180910390f35b6104b66110e0565b6040516104c39190611781565b60405180910390f35b6104d46110e6565b6040516104e1919061199e565b60405180910390f35b6104f261110c565b6040516104ff9190611b43565b60405180910390f35b60007f7965db0b000000000000000000000000000000000000000000000000000000007bffffffffffffffffffffffffffffffffffffffffffffffffffffffff1916827bffffffffffffffffffffffffffffffffffffffffffffffffffffffff1916148061057b575061057a82611146565b5b9050919050565b60045481565b60085481565b60075481565b600d5481565b6000806000838152602001908152602001600020600101549050919050565b6105c28261059a565b6105cb816111b0565b6105d583836111c4565b505050565b600e6020528060005260406000206000915090508060000154908060010160009054906101000a900473ffffffffffffffffffffffffffffffffffffffff16908060020154908060030154908060040154908060050160009054906101000a900460ff16908060050160019054906101000a900460ff16905087565b61065e6112a4565b73ffffffffffffffffffffffffffffffffffffffff168173ffffffffffffffffffffffffffffffffffffffff16146106cb576040517f08c379a00000000000000000000000000000000000000000000000000000000081526004016106c290611be1565b60405180910390fd5b6106d582826112ac565b5050565b600c5481565b600260009054906101000a900473ffffffffffffffffffffffffffffffffffffffff1681565b61072f7fa49807205ce4d355092ef5a8a18f56e8913cf4a201fbe287825b095693c2177533610821565b61076e576040517f08c379a000000000000000000000000000000000000000000000000000000000815260040161076590611c4d565b60405180910390fd5b600160045410156107b4576040517f08c379a00000000000000000000000000000000000000000000000000000000081526004016107ab90611cb9565b60405180910390fd5b81156107c65780600c819055506107f3565b6107e3678ac7230489e80000600d5461113090919063ffffffff16565b600d81905550600d54600c819055505b5050565b7fa49807205ce4d355092ef5a8a18f56e8913cf4a201fbe287825b095693c2177581565b60055481565b600080600084815260200190815260200160002060000160008373ffffffffffffffffffffffffffffffffffffffff1673ffffffffffffffffffffffffffffffffffffffff16815260200190815260200160002060009054906101000a900460ff16905092915050565b6000801b81565b60095481565b600160009054906101000a900460ff1681565b60008060028111156108c0576108bf611a25565b5b600160009054906101000a900460ff1660028111156108e2576108e1611a25565b5b146108ec57600080fd5b33600260006101000a81548173ffffffffffffffffffffffffffffffffffffffff021916908373ffffffffffffffffffffffffffffffffffffffff1602179055506009544210610971576040517f08c379a000000000000000000000000000000000000000000000000000000000815260040161096890611d25565b60405180910390fd5b6001600460008282546109849190611d74565b92505081905550600160045414156109b75768056bc75e2d63100000600c8190555068056bc75e2d63100000600d819055505b8115610c60576000600e6000600454815260200190815260200160002090506004548160000181905550338160010160006101000a81548173ffffffffffffffffffffffffffffffffffffffff021916908373ffffffffffffffffffffffffffffffffffffffff16021790555060018054906101000a900473ffffffffffffffffffffffffffffffffffffffff1673ffffffffffffffffffffffffffffffffffffffff166370a08231336040518263ffffffff1660e01b8152600401610a7d919061199e565b602060405180830381865afa158015610a9a573d6000803e3d6000fd5b505050506040513d601f19601f82011682018060405250810190610abe9190611ddf565b8160020181905550428160030181905550828160050160006101000a81548160ff02191690831515021790555060018160050160016101000a81548160ff021916908315150217905550600c54816004018190555060018054906101000a900473ffffffffffffffffffffffffffffffffffffffff1673ffffffffffffffffffffffffffffffffffffffff166323b872dd333084600401546040518463ffffffff1660e01b8152600401610b7493929190611e0c565b6020604051808303816000875af1158015610b93573d6000803e3d6000fd5b505050506040513d601f19601f82011682018060405250810190610bb79190611e58565b506001600a60006101000a81548160ff021916908315150217905550610c16610c03610258610bf5846003015460095461138d90919063ffffffff16565b61138d90919063ffffffff16565b826003015461113090919063ffffffff16565b600981905550600954600b819055507f07eac9a0695a188fe9d6fd680bcbbbe39041fb114d5d7ac11252401391f79307600454604051610c569190611781565b60405180910390a1505b5050565b610c6d8261059a565b610c76816111b0565b610c8083836112ac565b505050565b600a60009054906101000a900460ff1681565b600b54421015610cdd576040517f08c379a0000000000000000000000000000000000000000000000000000000008152600401610cd490611ed1565b60405180910390fd5b6000600e600060045481526020019081526020016000206040518060e0016040529081600082015481526020016001820160009054906101000a900473ffffffffffffffffffffffffffffffffffffffff1673ffffffffffffffffffffffffffffffffffffffff1673ffffffffffffffffffffffffffffffffffffffff1681526020016002820154815260200160038201548152602001600482015481526020016005820160009054906101000a900460ff161515151581526020016005820160019054906101000a900460ff16151515158152505090508060c0015115611056578060200151600660006101000a81548173ffffffffffffffffffffffffffffffffffffffff021916908373ffffffffffffffffffffffffffffffffffffffff16021790555060018054906101000a900473ffffffffffffffffffffffffffffffffffffffff1673ffffffffffffffffffffffffffffffffffffffff166370a08231306040518263ffffffff1660e01b8152600401610e5d919061199e565b602060405180830381865afa158015610e7a573d6000803e3d6000fd5b505050506040513d601f19601f82011682018060405250810190610e9e9190611ddf565b60058190555060018054906101000a900473ffffffffffffffffffffffffffffffffffffffff1673ffffffffffffffffffffffffffffffffffffffff1663a9059cbb600660009054906101000a900473ffffffffffffffffffffffffffffffffffffffff16610f2c6009610f1e600a6005546113a390919063ffffffff16565b6113b990919063ffffffff16565b6040518363ffffffff1660e01b8152600401610f49929190611ef1565b6020604051808303816000875af1158015610f68573d6000803e3d6000fd5b505050506040513d601f19601f82011682018060405250810190610f8c9190611e58565b5060018054906101000a900473ffffffffffffffffffffffffffffffffffffffff1673ffffffffffffffffffffffffffffffffffffffff1663a9059cbb73bb729f824d6c8ca59106dce008265a74b785aa99610ff4600a6005546113a390919063ffffffff16565b6040518363ffffffff1660e01b8152600401611011929190611ef1565b6020604051808303816000875af1158015611030573d6000803e3d6000fd5b505050506040513d601f19601f820116820180604052508101906110549190611e58565b505b50565b6000600b544211156110a0576040517f08c379a000000000000000000000000000000000000000000000000000000000815260040161109790611f66565b60405180910390fd5b6110b542600b5461138d90919063ffffffff16565b905090565b600660009054906101000a900473ffffffffffffffffffffffffffffffffffffffff1681565b600b5481565b600360009054906101000a900473ffffffffffffffffffffffffffffffffffffffff1681565b60018054906101000a900473ffffffffffffffffffffffffffffffffffffffff1681565b6000818361113e9190611d74565b905092915050565b60007f01ffc9a7000000000000000000000000000000000000000000000000000000007bffffffffffffffffffffffffffffffffffffffffffffffffffffffff1916827bffffffffffffffffffffffffffffffffffffffffffffffffffffffff1916149050919050565b6111c1816111bc6112a4565b6113cf565b50565b6111ce8282610821565b6112a057600160008084815260200190815260200160002060000160008373ffffffffffffffffffffffffffffffffffffffff1673ffffffffffffffffffffffffffffffffffffffff16815260200190815260200160002060006101000a81548160ff0219169083151502179055506112456112a4565b73ffffffffffffffffffffffffffffffffffffffff168173ffffffffffffffffffffffffffffffffffffffff16837f2f8788117e7eff1d82e926ec794901d17c78024a50270940304540a733656f0d60405160405180910390a45b5050565b600033905090565b6112b68282610821565b1561138957600080600084815260200190815260200160002060000160008373ffffffffffffffffffffffffffffffffffffffff1673ffffffffffffffffffffffffffffffffffffffff16815260200190815260200160002060006101000a81548160ff02191690831515021790555061132e6112a4565b73ffffffffffffffffffffffffffffffffffffffff168173ffffffffffffffffffffffffffffffffffffffff16837ff6391f5c32d9c69d2a47ea670b442974b53935d1edc7fd64eb21e047a839171b60405160405180910390a45b5050565b6000818361139b9190611f86565b905092915050565b600081836113b19190611fe9565b905092915050565b600081836113c7919061201a565b905092915050565b6113d98282610821565b611468576113fe8173ffffffffffffffffffffffffffffffffffffffff16601461146c565b61140c8360001c602061146c565b60405160200161141d929190612186565b6040516020818303038152906040526040517f08c379a000000000000000000000000000000000000000000000000000000000815260040161145f919061220a565b60405180910390fd5b5050565b60606000600283600261147f919061201a565b6114899190611d74565b67ffffffffffffffff8111156114a2576114a161222c565b5b6040519080825280601f01601f1916602001820160405280156114d45781602001600182028036833780820191505090505b5090507f30000000000000000000000000000000000000000000000000000000000000008160008151811061150c5761150b61225b565b5b60200101907effffffffffffffffffffffffffffffffffffffffffffffffffffffffffffff1916908160001a9053507f7800000000000000000000000000000000000000000000000000000000000000816001815181106115705761156f61225b565b5b60200101907effffffffffffffffffffffffffffffffffffffffffffffffffffffffffffff1916908160001a905350600060018460026115b0919061201a565b6115ba9190611d74565b90505b600181111561165a577f3031323334353637383961626364656600000000000000000000000000000000600f8616601081106115fc576115fb61225b565b5b1a60f81b8282815181106116135761161261225b565b5b60200101907effffffffffffffffffffffffffffffffffffffffffffffffffffffffffffff1916908160001a905350600485901c9450806116539061228a565b90506115bd565b506000841461169e576040517f08c379a000000000000000000000000000000000000000000000000000000000815260040161169590612300565b60405180910390fd5b8091505092915050565b600080fd5b60007fffffffff0000000000000000000000000000000000000000000000000000000082169050919050565b6116e2816116ad565b81146116ed57600080fd5b50565b6000813590506116ff816116d9565b92915050565b60006020828403121561171b5761171a6116a8565b5b6000611729848285016116f0565b91505092915050565b60008115159050919050565b61174781611732565b82525050565b6000602082019050611762600083018461173e565b92915050565b6000819050919050565b61177b81611768565b82525050565b60006020820190506117966000830184611772565b92915050565b6000819050919050565b6117af8161179c565b81146117ba57600080fd5b50565b6000813590506117cc816117a6565b92915050565b6000602082840312156117e8576117e76116a8565b5b60006117f6848285016117bd565b91505092915050565b6118088161179c565b82525050565b600060208201905061182360008301846117ff565b92915050565b600073ffffffffffffffffffffffffffffffffffffffff82169050919050565b600061185482611829565b9050919050565b61186481611849565b811461186f57600080fd5b50565b6000813590506118818161185b565b92915050565b6000806040838503121561189e5761189d6116a8565b5b60006118ac858286016117bd565b92505060206118bd85828601611872565b9150509250929050565b6118d081611768565b81146118db57600080fd5b50565b6000813590506118ed816118c7565b92915050565b600060208284031215611909576119086116a8565b5b6000611917848285016118de565b91505092915050565b61192981611849565b82525050565b600060e082019050611944600083018a611772565b6119516020830189611920565b61195e6040830188611772565b61196b6060830187611772565b6119786080830186611772565b61198560a083018561173e565b61199260c083018461173e565b98975050505050505050565b60006020820190506119b36000830184611920565b92915050565b6119c281611732565b81146119cd57600080fd5b50565b6000813590506119df816119b9565b92915050565b600080604083850312156119fc576119fb6116a8565b5b6000611a0a858286016119d0565b9250506020611a1b858286016118de565b9150509250929050565b7f4e487b7100000000000000000000000000000000000000000000000000000000600052602160045260246000fd5b60038110611a6557611a64611a25565b5b50565b6000819050611a7682611a54565b919050565b6000611a8682611a68565b9050919050565b611a9681611a7b565b82525050565b6000602082019050611ab16000830184611a8d565b92915050565b600060208284031215611acd57611acc6116a8565b5b6000611adb848285016119d0565b91505092915050565b6000819050919050565b6000611b09611b04611aff84611829565b611ae4565b611829565b9050919050565b6000611b1b82611aee565b9050919050565b6000611b2d82611b10565b9050919050565b611b3d81611b22565b82525050565b6000602082019050611b586000830184611b34565b92915050565b600082825260208201905092915050565b7f416363657373436f6e74726f6c3a2063616e206f6e6c792072656e6f756e636560008201527f20726f6c657320666f722073656c660000000000000000000000000000000000602082015250565b6000611bcb602f83611b5e565b9150611bd682611b6f565b604082019050919050565b60006020820190508181036000830152611bfa81611bbe565b9050919050565b7f204d5553542042452041444d494e000000000000000000000000000000000000600082015250565b6000611c37600e83611b5e565b9150611c4282611c01565b602082019050919050565b60006020820190508181036000830152611c6681611c2a565b9050919050565b7f414343455054532054484520494e495449414c495a45442056414c5545000000600082015250565b6000611ca3601d83611b5e565b9150611cae82611c6d565b602082019050919050565b60006020820190508181036000830152611cd281611c96565b9050919050565b7f43414e4e4f542050415254494349504154450000000000000000000000000000600082015250565b6000611d0f601283611b5e565b9150611d1a82611cd9565b602082019050919050565b60006020820190508181036000830152611d3e81611d02565b9050919050565b7f4e487b7100000000000000000000000000000000000000000000000000000000600052601160045260246000fd5b6000611d7f82611768565b9150611d8a83611768565b9250827fffffffffffffffffffffffffffffffffffffffffffffffffffffffffffffffff03821115611dbf57611dbe611d45565b5b828201905092915050565b600081519050611dd9816118c7565b92915050565b600060208284031215611df557611df46116a8565b5b6000611e0384828501611dca565b91505092915050565b6000606082019050611e216000830186611920565b611e2e6020830185611920565b611e3b6040830184611772565b949350505050565b600081519050611e52816119b9565b92915050565b600060208284031215611e6e57611e6d6116a8565b5b6000611e7c84828501611e43565b91505092915050565b7f2052455741524453204953204c4f434b45440000000000000000000000000000600082015250565b6000611ebb601283611b5e565b9150611ec682611e85565b602082019050919050565b60006020820190508181036000830152611eea81611eae565b9050919050565b6000604082019050611f066000830185611920565b611f136020830184611772565b9392505050565b7f436f756e74646f776e206973206f766572000000000000000000000000000000600082015250565b6000611f50601183611b5e565b9150611f5b82611f1a565b602082019050919050565b60006020820190508181036000830152611f7f81611f43565b9050919050565b6000611f9182611768565b9150611f9c83611768565b925082821015611faf57611fae611d45565b5b828203905092915050565b7f4e487b7100000000000000000000000000000000000000000000000000000000600052601260045260246000fd5b6000611ff482611768565b9150611fff83611768565b92508261200f5761200e611fba565b5b828204905092915050565b600061202582611768565b915061203083611768565b9250817fffffffffffffffffffffffffffffffffffffffffffffffffffffffffffffffff048311821515161561206957612068611d45565b5b828202905092915050565b600081905092915050565b7f416363657373436f6e74726f6c3a206163636f756e7420000000000000000000600082015250565b60006120b5601783612074565b91506120c08261207f565b601782019050919050565b600081519050919050565b60005b838110156120f45780820151818401526020810190506120d9565b83811115612103576000848401525b50505050565b6000612114826120cb565b61211e8185612074565b935061212e8185602086016120d6565b80840191505092915050565b7f206973206d697373696e6720726f6c6520000000000000000000000000000000600082015250565b6000612170601183612074565b915061217b8261213a565b601182019050919050565b6000612191826120a8565b915061219d8285612109565b91506121a882612163565b91506121b48284612109565b91508190509392505050565b6000601f19601f8301169050919050565b60006121dc826120cb565b6121e68185611b5e565b93506121f68185602086016120d6565b6121ff816121c0565b840191505092915050565b6000602082019050818103600083015261222481846121d1565b905092915050565b7f4e487b7100000000000000000000000000000000000000000000000000000000600052604160045260246000fd5b7f4e487b7100000000000000000000000000000000000000000000000000000000600052603260045260246000fd5b600061229582611768565b915060008214156122a9576122a8611d45565b5b600182039050919050565b7f537472696e67733a20686578206c656e67746820696e73756666696369656e74600082015250565b60006122ea602083611b5e565b91506122f5826122b4565b602082019050919050565b60006020820190508181036000830152612319816122dd565b905091905056fea2646970667358221220be04327e123b3744194b10aba0006b6732b7d0638bf3abe206d77a634947a46464736f6c634300080b0033",
  "immutableReferences": {},
  "source": "// SPDX-License-Identifier: MIT\npragma solidity >=0.4.22 <0.9.0;\n\nimport \"./TestToken.sol\";\nimport \"@openzeppelin/contracts/utils/math/SafeMath.sol\";\nimport \"@openzeppelin/contracts/access/AccessControl.sol\";\n\ncontract CountdownButton is AccessControl {\n    bytes32 public constant ADMIN_ROLE = keccak256(\"ADMIN_ROLE\");\n\n    using SafeMath for uint256;\n\n    //variables\n    enum State {\n        START,\n        COUNTDOWN,\n        COUNTDOWN_EXPIRED\n    }\n    State public state;\n\n    struct Participant {\n        uint256 pId;\n        address pAddress;\n        uint256 balance;\n        uint256 joinAt;\n        uint256 initialDepositAmount;\n        bool choice;\n        bool isLeader;\n    }\n\n    TestToken public token;\n\n    address public participantAddress;\n    address public admin;\n    uint256 public count;\n    uint256 public totalPrize;\n    address public winnerAddress;\n\n    //for countdown timer\n    uint256 public unlockPeriod;\n    uint256 public countdownStart;\n    uint256 public countdownEnd;\n    bool public reset;\n    uint256 public newCountdownEnd;\n\n    //for change in deposit amount\n    uint256 public depositAmount;\n    uint256 public initialDepositAmount;\n\n    //mapping\n    mapping(uint256 => Participant) public participants;\n    // mapping(address => Participant) public participants;\n\n    //modifiers\n    modifier inState(State _state) {\n        require(state == _state);\n        _;\n    }\n    modifier onlyAdmin() {\n        require(hasRole(ADMIN_ROLE, msg.sender), \" MUST BE ADMIN\");\n        _;\n    }\n\n    //events\n    event Create(uint256 pcount);\n\n    //functions\n    constructor(\n        address _admin,\n        TestToken _token,\n        uint256 _unluckPeriod,\n        uint256 _startAt\n    ) {\n        _setupRole(ADMIN_ROLE, _admin);\n        token = _token;\n        unlockPeriod = _unluckPeriod;\n        countdownStart = _startAt;\n        countdownEnd = unlockPeriod.add(countdownStart);\n        state = State.START;\n    }\n\n    function onClick(bool _choice) public inState(State.START) {\n        participantAddress = msg.sender;\n        require(block.timestamp < countdownEnd, \"CANNOT PARTICIPATE\");\n        count += 1;\n        if (count == 1) {\n            depositAmount = 100000000000000000000;\n            initialDepositAmount = 100000000000000000000;\n        }\n        if (_choice) {\n            Participant storage p = participants[count];\n            p.pId = count;\n            p.pAddress = msg.sender;\n            p.balance = token.balanceOf(msg.sender);\n            p.joinAt = block.timestamp;\n            p.choice = _choice;\n            p.isLeader = true;\n            p.initialDepositAmount = depositAmount;\n            token.transferFrom(\n                msg.sender,\n                address(this),\n                p.initialDepositAmount\n            );\n            reset = true;\n            //-10 min\n            countdownEnd = (p.joinAt).add(countdownEnd.sub(p.joinAt).sub(600));\n            newCountdownEnd = countdownEnd;\n            emit Create(count);\n        }\n        // state = State.COUNTDOWN;\n    }\n\n    function changeDepositAmount(bool _change, uint256 _newAmount)\n        public\n        onlyAdmin\n    {\n        require(count >= 1, \"ACCEPTS THE INITIALIZED VALUE\");\n        if (_change) {\n            depositAmount = _newAmount;\n        } else {\n            initialDepositAmount = initialDepositAmount.add(\n                10000000000000000000\n            );\n            depositAmount = initialDepositAmount;\n        }\n    }\n\n    function getCountdown() public view returns (uint256) {\n        require(block.timestamp <= newCountdownEnd, \"Countdown is over\");\n        return newCountdownEnd.sub(block.timestamp);\n    }\n\n    function winner() public {\n        require(block.timestamp >= newCountdownEnd, \" REWARDS IS LOCKED\");\n        //declare winner\n        Participant memory p = participants[count];\n        if (p.isLeader) {\n            winnerAddress = p.pAddress;\n            //withdraw the price\n            totalPrize = token.balanceOf(address(this));\n            token.transfer(winnerAddress, totalPrize.div(10).mul(9));\n            token.transfer(\n                0xbB729f824D6C8Ca59106dcE008265A74b785aa99,\n                // address(uint160(uint256(ADMIN_ROLE))),\n                totalPrize.div(10)\n            );\n        }\n    }\n}\n",
  "sourcePath": "/home/anisha/Desktop/state-channel/contracts/CountdownButton.sol",
  "compiler": {
    "name": "solc",
    "version": "0.8.11+commit.d7f03943.Emscripten.clang"
  },
  "schemaVersion": "3.4.4",
  "updatedAt": "2022-08-05T04:28:52.741Z",
  "networkType": "ethereum",
  "devdoc": {
    "kind": "dev",
    "methods": {
      "getRoleAdmin(bytes32)": {
        "details": "Returns the admin role that controls `role`. See {grantRole} and {revokeRole}. To change a role's admin, use {_setRoleAdmin}."
      },
      "grantRole(bytes32,address)": {
        "details": "Grants `role` to `account`. If `account` had not been already granted `role`, emits a {RoleGranted} event. Requirements: - the caller must have ``role``'s admin role. May emit a {RoleGranted} event."
      },
      "hasRole(bytes32,address)": {
        "details": "Returns `true` if `account` has been granted `role`."
      },
      "renounceRole(bytes32,address)": {
        "details": "Revokes `role` from the calling account. Roles are often managed via {grantRole} and {revokeRole}: this function's purpose is to provide a mechanism for accounts to lose their privileges if they are compromised (such as when a trusted device is misplaced). If the calling account had been revoked `role`, emits a {RoleRevoked} event. Requirements: - the caller must be `account`. May emit a {RoleRevoked} event."
      },
      "revokeRole(bytes32,address)": {
        "details": "Revokes `role` from `account`. If `account` had been granted `role`, emits a {RoleRevoked} event. Requirements: - the caller must have ``role``'s admin role. May emit a {RoleRevoked} event."
      },
      "supportsInterface(bytes4)": {
        "details": "See {IERC165-supportsInterface}."
      }
    },
    "version": 1
  },
  "userdoc": {
    "kind": "user",
    "methods": {},
    "version": 1
  }
}